S02B0000433A5C55736572735C757365725C4465736B746F705C30305F4261736550726F6A6563745C6170708E
S2244000000810402029024000210240002102400021024000210240002102400000000000C9
S2244000200000000000000000000000002102400021024000000000002102400021024000EF
S224400040210240002102400021024000210240002102400021024000210240002102400043
S224400060210240000000000021024000210240002102400021024000210240002102400086
S224400080210240002102400021024000210240002102400021024000210240002102400003
S2244000A02102400021024000210240002102400021024000210240002102400021024000E3
S2244000C02102400021024000210240002102400021024000210240002102400021024000C3
S2244000E02102400021024000210240002102400021024000210240002102400021024000A3
S224400100210240002102400021024000210240002102400021024000000000000000000048
S2244001202102400021024000210240002102400021024000000000002102400021024000C5
S22440014080B483B000AF2E4A2D4B1B6843F4004313602C4B2C4A1A602A4B1B68294A126898
S224400160126842F480621A60264B284A1A60254B1B68244A1268126842F400021A60214B5E
S224400180234A1A601F4B1B681E4A1268126842F400021A601B4B1F4A1A601A4B1B68194AA4
S2244001A01268126842F400021A60164B194A1A60144B1B68134A1268126842F400021A6031
S2244001C000237B6002E07B6801337B607B68124A9342F8D90B4B114A1A600A4B1B68094ACD
S2244001E01268126842F400021A6000233B6002E03B6801333B603B68074A9342F8D9D4E7AD
S22440020054180E400000402010060E40000E0E40100E0E40300E0E40BFD40100340E0E40A3
S22440022080B400AFFEE700BF80B582B000AF124B7B60124B3B607A683B689A420CD007E088
S2244002403B681A1D3A607A68111D796012681A603B680B4A9342F3D30A4B3B6004E03B68FE
S2244002601A1D3A6000221A603B68074A9342F6D3FFF766FFFEE700BF8C024000000040200D
S21040028000004020000040200400402009
S804400000BB
